:020000040000FA
:04000000803118280B
:100008007E1480314E010C1E0E288131142180315E
:10001800400118124E018D1C162881311A21803199
:100028008031C8207E10090080311A28F401F501BA
:10003800F6017E1040012028023051019300A720CC
:1000480080314B208031AE208031FF304320803119
:10005800FF30402080313D208031472080316300CF
:100068000000B2208031003A0319352863000000EF
:1000780035284E0116160800F200D4000800F200D8
:100088007E01D30008008B018B170B17080088200E
:100098008031430190018B20803143018F018F17FC
:1000A8000F131008F039063890009101911391123E
:1000B800111691151110920112179216921192149D
:1000C80012146F208031FE308E0085208031B620DA
:1000D80043019016080040010C0C890C0139F2000C
:1000E800F235F235F2350C0C0139F300F335F335FE
:1000F8000C080139090773047204C03843018D00E4
:1001080008004E018D1008004E01971008004001AC
:10011800131713167E014313431208309C0007304F
:100128009E00013042018C008D000C307D01C6001C
:100138000E30C50040011214921412157E013810B9
:10014800B81038110800B820CE013A164001121232
:1001580018160800F601F501F401080043010F0E16
:100168000139080097140800C32040019A01FF30A4
:1001780094007E01CF00D101D001D20108007E0198
:10018800D301D401D5010800430191120F1ED128D3
:10019800F501F601400118160800760C0339013AFA
:1001A8000319921BDC280F19DC28F930F605080022
:1001B8008F190F18E828921BE828760C0339031DBD
:1001C800E8287614F50108000F1C0A297608F93981
:1001D8000238F6000C08F1007508031906290F19F2
:1001E8000729750B0529F001710840019A000000E4
:1001F8000A30F00A7006031DFB28710840019400BC
:100208009A01430191121016F50A080076180F1D7D
:100218000800111B080040010E0843018C00072943
:100228007E015509D5054E010C1208008D100800F5
:020000040001F9
:04000E00CD3FEF3FB4
:04001400FF3FFF3F6C
:00000001FF
