:020000040000FA
:0400000080311D2806
:100008007E1480314E010C1E0A280B2810288131DD
:1000180045218031400118124E018D1C14281528E5
:100028001B288131742180318031262080317E1057
:10003800090080311F28F501F601F7017E10400103
:100048008031CE28430191120F1E2B282C283128ED
:10005800F601F70140011816A228770C0339013A76
:10006800031D372838284328921B3B283C2843285F
:100078000F193F2840284328F930F705A2288F1D7B
:100088004628472859280F184A284B285928921BD0
:100098004E284F285928770C0339003A031D552854
:1000A800562859287714F601A2280F1C5C285D28C9
:1000B80090287708F9390238F7000C08F000700822
:1000C800F2007608031D69286A286C2891128A288C
:1000D8000F196F2870288A287603031D742875283D
:1000E8008828F101720840019A0000000130F000F0
:1000F8007008F1070A307106031D832884287928BF
:100108007208400194009A014301911210160130BF
:10011800F0007008F607A228771C93289428A228D4
:100128000F1D97289828A228111B9B289C28A228D5
:1001380040010E0843018C0010168B2808008131FD
:100148006B218031430190018031F72080314301D8
:100158008F018F170F131008F0390638900091019E
:1001680091139112111691151110920112179216EE
:10017800921192141214813114218031FE304301FE
:100188008E0081316E2180318131682180314301B7
:100198009016080002305101930081313B218031D3
:1001A8008031A3208031813160218031FF3081315D
:1001B80052218031FF3081315721803181317121C5
:1001C80080318131642180316300000081315C21FC
:1001D8008031003A0319F128F228EA286300000068
:1001E800EA2880311D284001131713167E01431396
:1001F800431208309C0007309E00013042018C00F9
:1002080001308D000C307D01C6000E30C500400164
:100218001214921412157E013810B8103811080003
:1002280040010C0C890C0139F3000330F335890BBC
:100238001A290C0C0139F4000230F435890B2129F4
:100248000C080139090774047304C03843018D0090
:10025800080081314D21813140019A01FF3094001D
:10026800FF307E01CF00D101D001D20108008131D9
:100278002D2181317E01CE013A1640011212181645
:1002880008007E015509F0007008D5054E010C12D2
:1002980008007E01D301D401D5010800F3007308DA
:1002A8007E01D3000800F30073087E01D400080023
:1002B80043010F0E01390800F701F601F5010800A6
:1002C8008B018B170B1708004E01971408004E017D
:1002D800971008004E018D1008004E0116160800F0
:0602E8004E018D1008001C
:020000040001F9
:04000E00CD3EEF3FB5
:04001400FF3FFF3F6C
:00000001FF
