:020000040000FA
:04000000803118280B
:100008007E1480314E010C1E0E2881311121803161
:10001800400118124E018D1C162881313E21803175
:10002800803121207E10090080311A28F501F6015F
:10003800F7017E1040018031A128430191120F1E63
:100048002A28F601F701400118160800770C033931
:10005800013A0319921B35280F193528F930F7058D
:1000680008008F190F184228921B4228770C033971
:10007800003A031D42287714F60108000F1C6D286A
:100088007708F9390238F7000C08F0007008F20018
:100098007608031966280F1967287603031D652853
:1000A800F101720840019A0000000130F000700868
:1000B800F1070A307106031D5828720840019400A0
:1000C8009A014301911210160130F0007008F607EA
:1000D8000800771C08000F1D0800111B08004001CC
:1000E8000E0843018C006728813133218031430198
:1000F80090018031C620803143018F018F170F1383
:100108001008F039063890009101911391121116D8
:10011800911511109201121792169211921412143D
:100128008031E3208031FE308E00813136218031EC
:1001380081313C214301901608000230510193009F
:100148008131092180318031782080318131272126
:100158008031FF3081311E218031FF3081312F21E4
:10016800803181313921803181312B218031630007
:100178000000813123218031003A0319BD28630032
:100188000000BD284001131713167E0143134312C4
:1001980008309C0007309E00013042018C0001307D
:1001A8008D000C307D01C6000E30C50040011214D0
:1001B800921412157E013810B81038110800400149
:1001C8000C0C890C0139F3000330F335890BE9284D
:1001D8000C0C0139F4000230F435890BF0280C08B6
:1001E8000139090774047304C03843018D000800FD
:1001F8008131192140019A01FF309400FF307E01BE
:10020800CF00D101D001D20108008031FC20CE01FD
:100218003A1640011212181608007E015509F0001E
:100228007008D5054E010C1208007E01D301D401D7
:10023800D5010800F30073087E01D30008004301CC
:100248000F0E01390800F701F601F50108008B01CE
:100258008B170B170800F3007308D40008004E0131
:10026800971008004E018D1008004E011616080060
:08027800971408008D10080026
:020000040001F9
:04000E00CD3EEF3FB5
:04001400FF3FFF3F6C
:00000001FF
